:020000040800F2
:1000000000000220050700085507000855070008F2
:1000100055070008550700085507000800000000B4
:10002000000000000000000000000000550700086C
:100030005507000800000000550700085507000894
:100040005507000855070008550700085507000820
:100050005507000855070008550700085507000810
:100060005507000855070008550700085507000800
:1000700055070008550700085507000855070008F0
:1000800055070008550700085507000855070008E0
:1000900055070008550700085507000855070008D0
:1000A00055070008550700085507000855070008C0
:1000B00055070008550700085507000855070008B0
:1000C00055070008550700085507000855070008A0
:1000D0005507000855070008550700085507000890
:1000E0005507000855070008550700085507000880
:1000F0005507000855070008550700085507000870
:10010000550700085507000855070008550700085F
:10011000550700085507000855070008550700084F
:10012000550700085507000855070008550700083F
:1001300055070008000000000000000055070008F7
:10014000550700085507000855070008550700081F
:10015000550700085507000855070008550700080F
:1001600055070008550700085507000855070008FF
:100170005507000855070008550700080000000053
:10018000000000005507000800000000000000000B
:100190005507000800000000000000005507000897
:1001A00000000000000000000000000055070008EB
:1001B00055070008550700085507000855070008AF
:0401C00055070008D7
:1001C400A3F5803A704700BF174B002B08BF134BB1
:1001D4009D46FFF7F5FF00218B460F461348144A4E
:1001E400121A00F09FFC0E4B002B00D098470D4BC9
:1001F400002B00D098470020002104000D000D487A
:10020400002802D00C4800F01DFE00F05FFD200025
:10021400290000F013F800F09DFA00BF0000080068
:10022400000000000000000000000000380600206C
:1002340084090020490E0008091A000880B483B01C
:1002440000AF1F4B1B6B1E4A43F0010313631D4B8E
:100254001B681C4A23F4406313601A4B1B68194A39
:1002640043F480631360174B5B68164A23F44063BE
:100274005360144B5B68134A23F020035360114B03
:100284005B69104A43F02003536100237B6002E062
:100294007B6801337B607B680B4A9342F8DD094B32
:1002A4005B69084A23F02003536100233B6002E0AA
:1002B4003B6801333B603B68044A9342F8DDDEE768
:1002C40000380240000002401FA107009F86010081
:1002D40080B400AF00BFBD4680BC704780B400AF9F
:1002E40001231846BD4680BC704780B582B000AF7C
:1002F4007860396000F0E4FC034616221A604FF07F
:10030400FF3318460837BD4680BD80B582B000AFC4
:1003140078604FF0FF317868FFF7E7FF00BFFDE733
:1003240080B586B000AFF860B9607A6000237B6165
:100334000AE0AFF300800146BB685A1CBA60CAB237
:100344001A707B6901337B617A697B689A42F0DBBE
:100354007B6818461837BD4680BD80B586B000AFAF
:10036400F860B9607A6000237B6109E0BB685A1CBD
:10037400BA601B781846AFF300807B6901337B6158
:100384007A697B689A42F1DB7B6818461837BD4668
:1003940080BD80B483B000AF78604FF0FF3318465F
:1003A4000C37BD4680BC704780B483B000AF786022
:1003B40039603B684FF400525A60002318460C37EA
:1003C400BD4680BC704780B483B000AF7860012321
:1003D40018460C37BD4680BC704780B485B000AF6A
:1003E400F860B9607A60002318461437BD4680BCB3
:1003F40070470EB480B482B000AF78604FF0FF3322
:1004040018460837BD4680BC03B0704780B582B03B
:1004140000AF786000F054FC03460A221A604FF0E3
:10042400FF3318460837BD4680BD80B582B000AFA3
:10043400786000F045FC034602221A604FF0FF3357
:1004440018460837BD4680BD80B483B000AF7860DD
:100454004FF0FF3318460C37BD4680BC704780B45C
:1004640083B000AF786039603B684FF400525A6043
:10047400002318460C37BD4680BC704780B582B057
:1004840000AF7860396000F01BFC03461F221A603D
:100494004FF0FF3318460837BD4680BD80B500AF26
:1004A40000F00EFC03460B221A604FF0FF3318468F
:1004B40080BD80B584B000AFF860B9607A6000F0A8
:1004C400FFFB03460C221A604FF0FF331846103727
:1004D400BD4680BD80B586B000AF7860144A154B28
:1004E400D31A7B617B693B61134B1B68002B02D1E0
:1004F400114B124A1A60104B1A687B6813443A690C
:100504009A4207D200F0DCFB03460C221A604FF03B
:10051400FF3309E0084B1B68FB60074B1A687B68D4
:100524001344054A1360FB6818461837BD4680BD5E
:1005340000000220000400003C0600208409002082
:1005440080B400AF054BD3F88830044A43F47003F9
:10055400C2F8883000BFBD4680BC704700ED00E0A3
:1005640080B487B000AF00233B6100237B6102238A
:10057400FB600023BB6002237B60344B9B6803F069
:100584000C033B613B69082B11D03B69082B44D811
:100594003B69002B03D03B69042B04D03DE02C4B7A
:1005A4002C4A1A603DE02A4B2B4A1A6039E0274B4B
:1005B4005B689B0D03F00103BB60244B5B6803F095
:1005C4003F037B60BB68002B0CD0234A7B68B2FBE3
:1005D400F3F31E4A52689209C2F3080202FB03F3C2
:1005E4007B610BE01B4A7B68B2FBF3F3174A52684A
:1005F4009209C2F3080202FB03F37B61134B5B68AD
:100604001B0C03F0030301335B00FB607A69FB6896
:10061400B2FBF3F30E4A136003E00D4B0D4A1A606C
:1006240000BF0A4B9B681B0903F00F030B4AD35C02
:100634003B61074B1A683B6922FA03F3044A1360CF
:1006440000BF1C37BD4680BC704700BF0038024065
:10065400040000200024F40040787D01EC1A000816
:10066400601B000800000020380600203806002027
:10067400840900200348044B834202D0034B03B196
:100684001847704738060020380600200000000094
:100694000548064B1B1AD90F01EBA301491002D0E0
:1006A400034B03B118477047380600203806002072
:1006B4000000000010B5064C237843B9FFF7DAFFB9
:1006C400044B13B10448AFF300800123237010BD21
:1006D4004006002000000000D01A000808B5054BB1
:1006E4001BB105490548AFF30080BDE80840FFF79A
:1006F400CFBF00BF0000000044060020D01A00084D
:10070400DFF834D0FFF71CFF0C480D490D4A0023D5
:1007140002E0D458C4500433C4188C42F9D30A4AB2
:100724000A4C002301E013600432A242FBD300F020
:10073400CDFAFFF783FD704700000220000000207F
:1007440038060020601B00083806002084090020B9
:10075400FEE7000008B50021044600F0FBFA034B55
:100764001B6803B198472046FFF7CFFD940700208C
:10077400024A0349034800F069B900BF0C00002095
:10078400DD160008200000200C4B4168994210B58A
:10079400044601D000F0A0FFA168094B994202D0A1
:1007A400204600F099FFE168064B994204D02046A8
:1007B400BDE8104000F090BF10BD00BF5C060020F3
:1007C400C40600202C07002008B54B6EDA0702D4BB
:1007D4008B899B0501D5002008BD886D00F0A6FA21
:1007E400002008BD08B54B6EDA0702D48B899B053F
:1007F40001D5002008BD886D00F0A0FA002008BDD6
:100804002DE9F843314A324C3249DFF8DC90DFF805
:10081400DC80314F1160002504232946082204F1AD
:100824005C00C4E903352D4EA560C4E90055C4E954
:100834000555656600F076F904F15800C4E90749E6
:10084400C4E90987E66200F069FA2946244B636724
:10085400082204F1C400C4E91A55C4E91E552567E9
:10086400C4F8CC50C4F8805000F05CF904F168037B
:1008740004F1C000C4F88430C4E92298C4E92476A1
:1008840000F04CFA174BC4F8DC30294604F5967096
:100894000822C4E93455C4E93855C4F8D850C4F81A
:1008A4003451C4F8E85000F03DF904F1D003C4E930
:1008B4003D87C4F8F09004F59470C4F8FC60C4F863
:1008C400EC30BDE8F84300F029BA00BF94070020DB
:1008D4005C06002075070008FD0A0008210B0008CB
:1008E4000900010012000200950A0008BD0A000870
:1008F400F8B507462A4800F019FA2A4B1B68002B62
:1009040043D0294E7368013B26D4B46803E05A1CD3
:1009140004F1680420D0B4F90C50013B002DF6D149
:10092400224BE36004F15800656600F0F7F91C48B7
:1009340000F004FAC4E90155C4E90455082225600D
:10094400A561294604F15C0000F0ECF8C4E90C55FB
:10095400C4E911552046F8BD35680DB12E46D1E7DE
:100964004FF4D671384600F0D5FB044680B1042319
:10097400C0E900530C302946A0604FF4D0722546DC
:1009840000F0D0F834602E46BCE7FFF739FFB8E733
:100994000348346000F0D2F90C233B60DAE700BF6F
:1009A400B8070020940700200C0000200100FFFF7E
:1009B40010B504460A4800F0B9F9636B23B9094B32
:1009C400094A1B68626323B1BDE81040044800F083
:1009D400B5B9FFF715FFBDE81040014800F0AEB906
:1009E400B8070020940700208D070008014800F094
:1009F4009DB900BFB8070020014800F09FB900BFAF
:100A0400B807002008B5054800F090F9BDE8084093
:100A1400034A0449002000F019B800BFB8070020B9
:100A24000C000020CD07000808B5054A0549002040
:100A340000F00CF8BDE80840034800F07FB900BF9F
:100A44000C000020E9070008B80700202DE9F8434E
:100A54000746884616464FF000097568013D11D4D3
:100A6400B468A389012B08D9B4F90E3001332146A7
:100A7400384602D0C04749EA0009013D6B1C04F125
:100A84006804EED13668002EE7D14846BDE8F88305
:100A940010B50C46B1F90E1000F0E6F8002803DB9F
:100AA400236D0344236510BDA38923F48053A381DC
:100AB40010BD00BF002070472DE9F0411F46B1F979
:100AC4000C301646DA050C4605460BD423F4805345
:100AD400A381B4F90E103B4632462846BDE8F041E6
:100AE40000F0D8B80223B1F90E10002200F0A6F8E5
:100AF400B4F90C30EAE700BF10B50C46B1F90E109A
:100B040000F09CF8B4F90C30421C0EBF23F480535F
:100B140043F480532065A38110BD00BFB1F90E10CA
:100B240000F044B830B584078646034606D0A2B325
:100B340003F8011B980702F1FF32F8D1032A26D9E2
:100B44005FFA81FC0CEB0C2C0F2A0CEB0C402AD91D
:100B540022F00F0C9C44C3E90000C3E902001033E7
:100B64006345F8D112F00C0F02F00F0417D04FEACE
:100B7400940C0CF1FF351A4603EB8C0C42F8040B71
:100B84006245FBD1043304F0030203EB850322B175
:100B94001A4403F8011B9A42FBD1704630BD224629
:100BA400002AF5D1F9E71446E1E700BF38B5074C50
:100BB4000023054608462360FFF7EBFB431C00D0E7
:100BC40038BD2368002BFBD02B6038BD980700206C
:100BD400194B1B6883422ED0416C70B5054681B118
:100BE40000268C593CB121462468284600F086F939
:100BF400002CF8D1696C0436802EF2D1284600F01E
:100C04007DF9A96B11B1284600F078F92C6C34B148
:100C140021462468284600F071F9002CF8D1E96CCB
:100C240011B1284600F06AF96B6B1BB12846BDE888
:100C34007040184770BD70471800002038B58C46C6
:100C4400084C114605461A46604600232360FFF708
:100C5400C4FB431C00D038BD2368002BFBD02B60A1
:100C640038BD00BF9807002038B58C46084C1146A3
:100C740005461A46604600232360FFF751FB431CD8
:100C840000D038BD2368002BFBD02B6038BD00BFDB
:100C94009807002038B58C46084C114605461A467C
:100CA400604600232360FFF758FB431C00D038BD87
:100CB4002368002BFBD02B6038BD00BF98070020B1
:100CC400014B1868704700BF1800002070B50E4E25
:100CD4000E4DAE4208D0761BB610002455F8043BE6
:100CE40001349847A642F9D8094E0A4D00F0F0FEA7
:100CF400AE4208D0761BB610002455F8043B0134EC
:100D04009847A642F9D870BD541B0008541B00082C
:100D14005C1B0008541B0008704700BF704700BFED
:100D2400704700BF704700BF704700BF704700BFE7
:100D34000120704701207047704700BF704700BF13
:100D4400024B13B1024800F07DB870470000000068
:100D5400091A00082DE9F04F384FDFF8E49083B00A
:100D64000E4601903868FFF7E1FFD9F800B0BBF1F7
:100D7400000F32D0DBF804305C1E2ED40BF10405D6
:100D840005EB83057EBBDBF80430D5F80080013B1E
:100D9400A34216BF0023CBF804402B60B8F1000F28
:100DA40016D03868DBF804A0FFF7C8FFDBF8882109
:100DB4000123A34013422ED1C0473868FFF7B6FF82
:100DC400DBF80420D9F80030524533D15B4531D1EA
:100DD400013C631CA5F10405D4D1386803B0BDE817
:100DE400F04FFFF7ABBFD5F800319E4204F1FF325C
:100DF400C9D0002CF1D0D5F8FC30B342A4F10204E0
:100E040012D0621CA5F10805EDD1386803B0BDE825
:100E1400F04FFFF793BFDBF88C21D5F88010134215
:100E240005D10198C047C8E71446043DABE708461E
:100E3400C047C2E7002BD0D09B469BE7200200208E
:100E4400BC070020002301461A46184600F0FCBDEA
:100E5400F8B5064608200C4600F0E8FD0746304683
:100E640000F02EFC224A93685D6825F00305A5F185
:100E740011031C1B3C44B4FBF7F4013C07FB04F4D2
:100E8400A74208DC0021304600F0AAFD184A936806
:100E94002B44984204D0304600F018FC0020F8BDE2
:100EA4006142304600F09CFD0130114A0DD01149D9
:100EB40093682D1B45F001055D600B6830461B1BD4
:100EC4000B6000F003FC0120F8BD0021304600F067
:100ED40087FD074A9268831A0F2BDCDD43F0010378
:100EE4005360054B03491B68C01A0860D3E700BF71
:100EF40030020020C007002024020020002965D011
:100F04002DE9F0410C46074600F0DAFB54F804ECF6
:100F14007D49A4F1080C2EF001030CEB03028D684B
:100F24005068954220F003000EF0010600F08B801B
:100F3400151850606D6805F00105A846AEBB54F85D
:100F4400084CACEB040C2344DCF8084001F1080E17
:100F540074456BD0DCF80C50E560AC60B8F1000F60
:100F640000F08C8043F00100CCF804001360B3F56A
:100F7400007F35D2DA0848685C090132012312B2D5
:100F8400A34003434B6051F83200CCF8080001EB56
:100F9400C203083BCCF80C3041F832C0C0F80CC096
:100FA4003846BDE8F04100F091BB85B9034401F136
:100FB400080E9068704543F001047AD0D268C2608C
:100FC4009060CCF804404CF80330D0E770474EF002
:100FD4000102B3F5007F44F8042C4CF80330C9D364
:100FE400B3F5206F4FEA53204AD2980900F1390231
:100FF40012B200F13804D20088188A580838904296
:1010040003D15FE09268904204D0516821F003015B
:101014009942F7D8D068CCE90220C0F808C0384615
:10102400C2F80CC0BDE8F04100F050BBA5BB1844A9
:10103400D2E90223D3609A6040F00103CCF8043073
:101044004CF80000ACE7184446B954F8083CACEB43
:10105400030C1844DCE90223D3609A6040F00103D6
:10106400CCF80430294BC1F808C01B68834297D8D8
:10107400274B38461968FFF7EBFE91E7034498E7DE
:1010840014280FD9542824D8180B00F16F0212B277
:1010940000F16E04D200AFE743F00101CCF8041074
:1010A40013607DE700F15C0212B200F15B04D20030
:1010B400A2E7C1E904CCCCE902EECCF804404CF838
:1010C40003306DE7A4100123A3404C6823434B6015
:1010D400A1E7B0F5AA7F07D8D80B00F1780212B2C5
:1010E40000F17704D20087E740F25452904206D8C8
:1010F400980C00F17D0200F17C04D2007CE74FF4EF
:101104007E727E2478E700BF30020020280200208F
:10111400F00700202DE9F04F01F10B02162A85B0EB
:10112400804624D8102900F2AB8000F0C9FA0225C9
:1011340018211022B74C2144A1F108004E688642C0
:1011440000F062817268F168B46822F003023244EC
:10115400E1608C60516841F001014046516000F04B
:10116400B5FA06F10804204605B0BDE8F08F32F068
:10117400070200F18580914200F28280019200F022
:101184009FFA019AB2F5FC7FC0F0BA81570A7FD06A
:10119400042F00F27281970907F139052BB207F188
:1011A400380CDB009B4C2344A3F108065B689E4289
:1011B40007D10DE00028DF6880F21381BE4207D01A
:1011C4003B46596821F00301881A0F28F2DD654671
:1011D400236991498B4200F0F1805E6826F0030692
:1011E400B11A0F2900F391818B480029C4E9040046
:1011F40080F27981B6F5007F676880F01981F10883
:1012040001310FFA81FC76090121B14054F83C0008
:1012140098600F4304EBCC010839D960676044F847
:101224003C30C360AB1001269E40BE4236D83E42DD
:1012340006D125F0030576003E4205F10405FAD0F7
:1012440004EBC50A04EBC507A946F9680EE0486833
:1012540020F0030EAEEB020CBCF10F0F0B46C96875
:1012640000F31881BCF1000F80F22D818F42EED182
:1012740009F1010919F0030F07F10807E5D17FE12E
:101284000C23C8F800300024204605B0BDE8F08FD8
:101294004FF4007340254FF03F0C83E7A76879684B
:1012A40021F0030393429A4603D3991A0F2900F3BA
:1012B40087805A495A4E0968103111440820CDE9F3
:1012C400011200F0B3FB01994B1E034445428346CF
:1012D40030681D40B0F1FF3F18BF294640460191D8
:1012E40000F07EFB411C0546DDE9011200F02B8174
:1012F40007EB0A0C844500F224814A4B186800EB82
:1013040001090BF1FF3EC3F8009000F089813068B9
:1013140001301BBFA5EB0C0C09EB0C003560186009
:1013240015F00700814600F04881C0F1080005442B
:10133400CDE901236B1803EA0E015844401A00EA70
:101344000E06314640469B4600F04AFB421CDDE94E
:10135400012300F09581401B304440F001011868DE
:10136400A56000EB0609A7426960C3F8009017D096
:10137400BAF10F0F40F25E81AAF10C0121F0070CC3
:10138400796801F0010141EA0C017960052607EB57
:101394000C01BCF10F0FC1E9016600F263816968B9
:1013A400214B1E684E4538BFC3F800901F4B1E6882
:1013B4004E4501D2C3F800902F46C6E0676831E776
:1013C400BD1841F0010142F001027A604046A56077
:1013D400696000F07BF907F10804204605B0BDE818
:1013E400F08F9A6801931944D760BA604A6842F052
:1013F400010240464A6000F069F9019B03F10804C8
:10140400204605B0BDE8F08FCE68B1427FF49AAEB5
:101414000235DDE63002002038020020F00700200B
:1014240024020020C0070020EC070020E807002069
:10143400B6F5206F4FEA56207CD3142800F2D380EF
:1014440000F15C0109B25B30C90004EB010C615886
:10145400ACF1080C8C4503D1A8E089688C4504D014
:10146400486820F00300B042F7D8D1F80CC0C3E9B3
:10147400021CCCF80830CB60D4E6142F72D9542F58
:1014840000F2BA80170B07F16F052BB207F16E0C4F
:10149400DB0087E69D1842F001025A609E68864A86
:1014A400F1608E60C4E90455C5E902224CF00102E2
:1014B4006A60404643F80EC0019300F007F9019BAF
:1014C40003F10804E0E69E441C46DEF8043043F0D1
:1014D4000103CEF8043054F8083F4046D9608B60CD
:1014E40000F0F4F8D0E61E4440467268019342F0DE
:1014F4000102726000F0EAF8019B03F10804C3E6FC
:10150400D508691C09B2C90014E69D1842F001020D
:101514005A60694A0193C4E90455C5E9022241F0BD
:1015240001026A604046995100F0D0F8019B03F132
:101534000804A9E6B00900F1390109B23830C9003C
:1015440083E7A74263D0A768796821F0030090423B
:10155400A0EB020102D30F293FF732AF404600F05F
:10156400B5F890E607F15C052BB207F15B0CDB00E4
:1015740018E6514651F808398B428A4640F09A8061
:1015840015F0030F05F1FF35F3D1636823EA060371
:10159400636076009E423FF681AE1EB97EE6760019
:1015A40009F104091E42FAD04D4649E6801001268D
:1015B40006FA00F00743676059E7CDE902236B1888
:1015C40003EA0E01ABEB010606EA0E06314640467D
:1015D400019300F005FA431C019B04BF4E461846D4
:1015E400DDE90223B7E6542827D8300B00F16F0158
:1015F40009B26E30C90028E7B7F5AA7F27D8D70B00
:1016040007F178052BB207F1770CDB00CAE52B4B09
:10161400186800EB01090BF1FF3EC3F8009076E671
:1016240015EA0E0F7FF473AEA568514441F0010131
:101634006960B5E601236B6090E7B0F5AA7F25D811
:10164400F00B00F1780109B27730C900FDE640F2F1
:1016540054539F4224D8930C03F17D0503F17C0C71
:10166400EB009FE507F108014046CDE90123FFF7B0
:1016740045FCA568029B6968D3F80090019A8FE63F
:10168400A9F108010BEB0100002664E640F2545175
:1016940088420BD8B00C00F17D01C9007C30D4E63F
:1016A4004FF47E737F254FF07E0C7BE54FF47E7103
:1016B4007E20CAE663686CE738020020C007002079
:1016C4000148FFF733BB00BFAC0700200148FFF718
:1016D40035BB00BFAC07002070B5002941D00646D9
:1016E4000C4610B1436B002B3ED0FFF77FF9636EBD
:1016F400B4F90C20DD0730D4900538D521463046A6
:1017040000F054F8E36A054633B1E169304698477E
:101714000028B8BF4FF0FF35A3891A0639D4216BCE
:1017240041B104F14003994202D03046FFF7E6FB91
:1017340000232363616C21B13046FFF7DFFB0023F4
:101744006364636E0022DB07A2811ED5A06DFFF7E0
:10175400E9FAFFF751F9284670BD002ACED1FFF708
:101764004BF90025284670BDFFF722F9BDE7A06DAF
:10177400FFF7DCFAB4F90C30002BBFD1636ED90744
:10178400EDD4A06DFFF7DAFAE9E7A06DFFF7D6FA1A
:10179400DCE721693046FFF7B1FBC0E7024B0146A5
:1017A4001868FFF799BF00BF18000020B1F90C209A
:1017B4002DE9F041804610070C4650D4496842F4A4
:1017C40000630029A38164DDA66A002E44D00021B1
:1017D40012F48052D8F80050C8F8001065D1E169BD
:1017E40001234046B047411C02466CD0B4F90C308A
:1017F400A66A5B0705D56368D21A236B0BB1E36B4A
:10180400D21A0023E1694046B047471CB4F90C30B2
:101814004DD1D8F800101D2940D8304ACA40D60707
:101824003CD52269226023F40062A281D9044FF0DE
:101834000002626003D5D8F80030002B41D0216B40
:10184400C8F8005041B104F14003994202D0404627
:10185400FFF754FB002323630020BDE8F0810E69E9
:10186400002EF9D00D680E6092070CBF4B6900235F
:10187400AD1B8B600AE02B463246E169676A40463D
:10188400B8470028A5EB0005064406DD002DF2DC70
:10189400E2E7E16B002997DCDEE7A38943F040032C
:1018A400A3814FF0FF30BDE8F081226DA1E72269EA
:1018B400226023F40062A281DB044FF00002626024
:1018C400BDD52065BBE7D8F80030002B8ED01D2B8A
:1018D40001D0162BE1D1C8F80050BDE7010040202B
:1018E40000B5034683B008B1426B52B3B1F90C00A2
:1018F40098B14A6ED20701D4820512D518460091D8
:10190400FFF754FF00994A6E0346D00702D48A8930
:1019140092050ED5184603B000BD0346184603B021
:1019240000BD886D01930091FFF700FADDE9001313
:10193400E4E7886D0093FFF701FA009B184603B0B3
:1019440000BDCDE90001FFF733F8DDE90031CDE753
:10195400002838D000B51E4B1B6883B001460BB17C
:101964005A6BD2B1B1F90C0098B14A6ED20701D4C6
:1019740082051AD518460091FFF718FF00994A6EA0
:101984000346D00702D48A89920516D5184603B0B7
:1019940000BD0346184603B000BD019018460093ED
:1019A400FFF706F8DDE90031DCE7886D019300916B
:1019B400FFF7BCF9DDE90013DCE7886D0093FFF75E
:1019C400BDF9009BE2E7034A03490448FFF73EB828
:1019D400180000200C000020E5180008200000205A
:1019E40038B5074C0023054608462360FEF772FD10
:1019F400431C00D038BD2368002BFBD02B6038BDBE
:101A04009807002038B5074D074C2C1BA41005D0AF
:101A1400013C55F8043D9847002CF9D1BDE8384005
:101A240000F05CB8601B00085C1B0008082802D1A9
:101A34004FF48050704708B5FFF742F9162303604E
:101A44004FF0FF3008BD00BFF0B51D4C83B0054614
:101A54002068019116461F46FFF768F9194A019953
:101A6400136823B35A6820681F2A23DC4DB9541C19
:101A740002325C6043F82210FFF760F9002003B0E3
:101A8400F0BD03EB820E0124CEF88860D3F88861A0
:101A9400944046EA040C022DC3F888C1CEF80871BC
:101AA400E5D1D3F88C512543C3F88C51DFE7064BBD
:101AB4001360D7E7FFF742F94FF0FF30DFE700BFCD
:101AC40020020020BC070020F407002000000000D2
:101AD400F8B500BFF8BC08BC9E467047F8B500BF17
:081AE400F8BC08BC9E467047E7
:101AEC0000000000000000000102030406070809C2
:101AFC0000000000010203043E410C41114127414A
:101B0C0036410341064115410F410E412641134117
:101B1C002941024119410A410B4100003E410C414F
:101B2C001141274136410341064115410F410E41F8
:101B3C00264113412941024119410A410B41000040
:081B4C0078E6FF7F01000000B4
:081B5400450D0008E106000840
:041B5C00B9060008BE
:101B6000380600200024F4000000000000000000FF
:101B7000030000005C0600202000002000000000A0
:101B8000000000005C060020C40600202C07002096
:101B90000000000000000000000000000000000045
:101BA0000000000000000000000000000000000035
:101BB0000000000000000000000000000000000025
:101BC0000000000000000000000000000000000015
:101BD0000000000000000000000000000000000005
:101BE00000000000000000000000000000000000F5
:101BF00000000000000000000000000000000000E5
:101C000000000000000000000000000000000000D4
:101C100000000000000000000100000000000000C3
:101C20000E33CDAB34126DE6ECDE05000B00000088
:101C300000000000000000000000000000000000A4
:101C40000000000000000000000000000000000094
:101C50000000000000000000000000000000000084
:101C60000000000000000000000000000000000074
:101C70000000000000000000000000000000000064
:101C80000000000000000000000000000000000054
:101C90000000000000000000000000000000000044
:101CA0000000000000000000000000000000000034
:101CB0000000000000000000000000000000000024
:101CC0000000000000000000000000000000000014
:101CD0000000000000000000000000000000000004
:101CE00000000000000000000000000000000000F4
:101CF00000000000000000000000000000000000E4
:101D000000000000000000000000000000000000D3
:101D100000000000000000000000000000000000C3
:101D200000000000000000000000000000000000B3
:101D300000000000000000000000000000000000A3
:101D40000000000000000000000000000000000093
:101D50000000000000000000000000000000000083
:101D60000000000000000000000000000000000073
:101D70000000000000000000000000000000000063
:101D8000B4070020FFFFFFFF00000200000000007A
:101D9000000000000000000030020020300200209F
:101DA00038020020380200204002002040020020BB
:101DB000480200204802002050020020500200206B
:101DC000580200205802002060020020600200201B
:101DD00068020020680200207002002070020020CB
:101DE000780200207802002080020020800200207B
:101DF000880200208802002090020020900200202B
:101E00009802002098020020A0020020A0020020DA
:101E1000A8020020A8020020B0020020B00200208A
:101E2000B8020020B8020020C0020020C00200203A
:101E3000C8020020C8020020D0020020D0020020EA
:101E4000D8020020D8020020E0020020E00200209A
:101E5000E8020020E8020020F0020020F00200204A
:101E6000F8020020F80200200003002000030020F8
:101E700008030020080300201003002010030020A6
:101E80001803002018030020200300202003002056
:101E90002803002028030020300300203003002006
:101EA00038030020380300204003002040030020B6
:101EB0004803002048030020500300205003002066
:101EC0005803002058030020600300206003002016
:101ED00068030020680300207003002070030020C6
:101EE0007803002078030020800300208003002076
:101EF0008803002088030020900300209003002026
:101F00009803002098030020A0030020A0030020D5
:101F1000A8030020A8030020B0030020B003002085
:101F2000B8030020B8030020C0030020C003002035
:101F3000C8030020C8030020D0030020D0030020E5
:101F4000D8030020D8030020E0030020E003002095
:101F5000E8030020E8030020F0030020F003002045
:101F6000F8030020F80300200004002000040020F3
:101F700008040020080400201004002010040020A1
:101F80001804002018040020200400202004002051
:101F90002804002028040020300400203004002001
:101FA00038040020380400204004002040040020B1
:101FB0004804002048040020500400205004002061
:101FC0005804002058040020600400206004002011
:101FD00068040020680400207004002070040020C1
:101FE0007804002078040020800400208004002071
:101FF0008804002088040020900400209004002021
:102000009804002098040020A0040020A0040020D0
:10201000A8040020A8040020B0040020B004002080
:10202000B8040020B8040020C0040020C004002030
:10203000C8040020C8040020D0040020D0040020E0
:10204000D8040020D8040020E0040020E004002090
:10205000E8040020E8040020F0040020F004002040
:10206000F8040020F80400200005002000050020EE
:10207000080500200805002010050020100500209C
:10208000180500201805002020050020200500204C
:1020900028050020280500203005002030050020FC
:1020A00038050020380500204005002040050020AC
:1020B000480500204805002050050020500500205C
:1020C000580500205805002060050020600500200C
:1020D00068050020680500207005002070050020BC
:1020E000780500207805002080050020800500206C
:1020F000880500208805002090050020900500201C
:102100009805002098050020A0050020A0050020CB
:10211000A8050020A8050020B0050020B00500207B
:10212000B8050020B8050020C0050020C00500202B
:10213000C8050020C8050020D0050020D0050020DB
:10214000D8050020D8050020E0050020E00500208B
:10215000E8050020E8050020F0050020F00500203B
:10216000F8050020F80500200006002000060020E9
:102170000806002008060020100600201006002097
:102180001806002018060020200600202006002047
:082190002806002028060020AB
:0400000508000705E3
:00000001FF
